{
  "_format": "hh-sol-artifact-1",
  "contractName": "MainContract",
  "sourceName": "contracts/MainContract.sol",
  "abi": [
    {
      "anonymous": false,
      "inputs": [
        {
          "indexed": true,
          "internalType": "address",
          "name": "donor",
          "type": "address"
        },
        {
          "indexed": false,
          "internalType": "uint256",
          "name": "amount",
          "type": "uint256"
        }
      ],
      "name": "DonationReceived",
      "type": "event"
    },
    {
      "anonymous": false,
      "inputs": [
        {
          "indexed": true,
          "internalType": "uint256",
          "name": "id",
          "type": "uint256"
        },
        {
          "indexed": true,
          "internalType": "address",
          "name": "owner",
          "type": "address"
        },
        {
          "indexed": true,
          "internalType": "string",
          "name": "token",
          "type": "string"
        }
      ],
      "name": "ERC20TokenListed",
      "type": "event"
    },
    {
      "inputs": [],
      "name": "_donationIndex",
      "outputs": [
        {
          "internalType": "uint256",
          "name": "",
          "type": "uint256"
        }
      ],
      "stateMutability": "view",
      "type": "function"
    },
    {
      "inputs": [],
      "name": "_tokenIndex",
      "outputs": [
        {
          "internalType": "uint256",
          "name": "",
          "type": "uint256"
        }
      ],
      "stateMutability": "view",
      "type": "function"
    },
    {
      "inputs": [],
      "name": "contractOwner",
      "outputs": [
        {
          "internalType": "address payable",
          "name": "",
          "type": "address"
        }
      ],
      "stateMutability": "view",
      "type": "function"
    },
    {
      "inputs": [
        {
          "internalType": "address",
          "name": "_owner",
          "type": "address"
        },
        {
          "internalType": "string",
          "name": "_tokenSupply",
          "type": "string"
        },
        {
          "internalType": "string",
          "name": "_tokenName",
          "type": "string"
        },
        {
          "internalType": "string",
          "name": "_tokenSymbol",
          "type": "string"
        },
        {
          "internalType": "string",
          "name": "_tokenAddress",
          "type": "string"
        },
        {
          "internalType": "string",
          "name": "_tokenTransactionHash",
          "type": "string"
        },
        {
          "internalType": "string",
          "name": "_tokenCreatedData",
          "type": "string"
        }
      ],
      "name": "createERC20Token",
      "outputs": [
        {
          "internalType": "uint256",
          "name": "",
          "type": "uint256"
        },
        {
          "internalType": "address",
          "name": "",
          "type": "address"
        },
        {
          "internalType": "string",
          "name": "",
          "type": "string"
        },
        {
          "internalType": "string",
          "name": "",
          "type": "string"
        },
        {
          "internalType": "string",
          "name": "",
          "type": "string"
        },
        {
          "internalType": "string",
          "name": "",
          "type": "string"
        }
      ],
      "stateMutability": "nonpayable",
      "type": "function"
    },
    {
      "inputs": [],
      "name": "donate",
      "outputs": [],
      "stateMutability": "payable",
      "type": "function"
    },
    {
      "inputs": [],
      "name": "getAllERC20TokenListed",
      "outputs": [
        {
          "components": [
            {
              "internalType": "uint256",
              "name": "tokenID",
              "type": "uint256"
            },
            {
              "internalType": "address",
              "name": "owner",
              "type": "address"
            },
            {
              "internalType": "string",
              "name": "tokenSupply",
              "type": "string"
            },
            {
              "internalType": "string",
              "name": "tokenName",
              "type": "string"
            },
            {
              "internalType": "string",
              "name": "tokenSymbol",
              "type": "string"
            },
            {
              "internalType": "string",
              "name": "tokenAddress",
              "type": "string"
            },
            {
              "internalType": "string",
              "name": "tokenTransactionHash",
              "type": "string"
            },
            {
              "internalType": "string",
              "name": "tokenCreatedDate",
              "type": "string"
            }
          ],
          "internalType": "struct MainContract.ERC20Token[]",
          "name": "",
          "type": "tuple[]"
        }
      ],
      "stateMutability": "view",
      "type": "function"
    },
    {
      "inputs": [],
      "name": "getContractBalance",
      "outputs": [
        {
          "internalType": "uint256",
          "name": "",
          "type": "uint256"
        }
      ],
      "stateMutability": "view",
      "type": "function"
    },
    {
      "inputs": [],
      "name": "getDonations",
      "outputs": [
        {
          "components": [
            {
              "internalType": "uint256",
              "name": "donationID",
              "type": "uint256"
            },
            {
              "internalType": "address",
              "name": "donor",
              "type": "address"
            },
            {
              "internalType": "uint256",
              "name": "fund",
              "type": "uint256"
            }
          ],
          "internalType": "struct MainContract.Donation[]",
          "name": "",
          "type": "tuple[]"
        }
      ],
      "stateMutability": "view",
      "type": "function"
    },
    {
      "inputs": [
        {
          "internalType": "uint256",
          "name": "_tokenID",
          "type": "uint256"
        }
      ],
      "name": "getERC20Token",
      "outputs": [
        {
          "internalType": "uint256",
          "name": "",
          "type": "uint256"
        },
        {
          "internalType": "address",
          "name": "",
          "type": "address"
        },
        {
          "internalType": "string",
          "name": "",
          "type": "string"
        },
        {
          "internalType": "string",
          "name": "",
          "type": "string"
        },
        {
          "internalType": "string",
          "name": "",
          "type": "string"
        },
        {
          "internalType": "string",
          "name": "",
          "type": "string"
        },
        {
          "internalType": "string",
          "name": "",
          "type": "string"
        },
        {
          "internalType": "string",
          "name": "",
          "type": "string"
        }
      ],
      "stateMutability": "view",
      "type": "function"
    },
    {
      "inputs": [],
      "name": "getERC20TokenListingPrice",
      "outputs": [
        {
          "internalType": "uint256",
          "name": "",
          "type": "uint256"
        }
      ],
      "stateMutability": "view",
      "type": "function"
    },
    {
      "inputs": [
        {
          "internalType": "address",
          "name": "_user",
          "type": "address"
        }
      ],
      "name": "getUserERC20Tokens",
      "outputs": [
        {
          "components": [
            {
              "internalType": "uint256",
              "name": "tokenID",
              "type": "uint256"
            },
            {
              "internalType": "address",
              "name": "owner",
              "type": "address"
            },
            {
              "internalType": "string",
              "name": "tokenSupply",
              "type": "string"
            },
            {
              "internalType": "string",
              "name": "tokenName",
              "type": "string"
            },
            {
              "internalType": "string",
              "name": "tokenSymbol",
              "type": "string"
            },
            {
              "internalType": "string",
              "name": "tokenAddress",
              "type": "string"
            },
            {
              "internalType": "string",
              "name": "tokenTransactionHash",
              "type": "string"
            },
            {
              "internalType": "string",
              "name": "tokenCreatedDate",
              "type": "string"
            }
          ],
          "internalType": "struct MainContract.ERC20Token[]",
          "name": "",
          "type": "tuple[]"
        }
      ],
      "stateMutability": "view",
      "type": "function"
    },
    {
      "inputs": [],
      "name": "listingPrice",
      "outputs": [
        {
          "internalType": "uint256",
          "name": "",
          "type": "uint256"
        }
      ],
      "stateMutability": "view",
      "type": "function"
    },
    {
      "inputs": [
        {
          "internalType": "uint256",
          "name": "_listingPrice",
          "type": "uint256"
        }
      ],
      "name": "updatingListPrice",
      "outputs": [],
      "stateMutability": "payable",
      "type": "function"
    },
    {
      "inputs": [],
      "name": "withdraw",
      "outputs": [],
      "stateMutability": "nonpayable",
      "type": "function"
    }
  ],
  "bytecode": "0x608060405273fda86653c104b8163bf9337e58c3313a7f58553f6000806101000a81548173ffffffffffffffffffffffffffffffffffffffff021916908373ffffffffffffffffffffffffffffffffffffffff160217905550662386f26fc1000060015534801561006f57600080fd5b506129218061007f6000396000f3fe6080604052600436106100dd5760003560e01c8063a21854771161007f578063c78f19f911610059578063c78f19f9146102af578063ce606ee0146102da578063e25f841614610305578063ed88c68e14610330576100dd565b8063a218547714610205578063a581889a14610242578063b5c6e21f14610284576100dd565b80633ccfd60b116100bb5780633ccfd60b1461016d5780635b7af131146101845780636f9fb98a146101af5780639463c838146101da576100dd565b80630fbf0e31146100e257806316e5f7b9146101265780631ec4a8b514610142575b600080fd5b3480156100ee57600080fd5b5061010960048036038101906101049190611a05565b61033a565b60405161011d989796959493929190611b12565b60405180910390f35b610140600480360381019061013b9190611a05565b610779565b005b34801561014e57600080fd5b5061015761089f565b6040516101649190611bba565b60405180910390f35b34801561017957600080fd5b506101826108a5565b005b34801561019057600080fd5b506101996109e5565b6040516101a69190611dd2565b60405180910390f35b3480156101bb57600080fd5b506101c4610e9f565b6040516101d19190611bba565b60405180910390f35b3480156101e657600080fd5b506101ef610f3c565b6040516101fc9190611bba565b60405180910390f35b34801561021157600080fd5b5061022c60048036038101906102279190611e20565b610f46565b6040516102399190611dd2565b60405180910390f35b34801561024e57600080fd5b5061026960048036038101906102649190611f82565b61150d565b60405161027b969594939291906120cc565b60405180910390f35b34801561029057600080fd5b50610299611682565b6040516102a69190611bba565b60405180910390f35b3480156102bb57600080fd5b506102c4611688565b6040516102d19190611bba565b60405180910390f35b3480156102e657600080fd5b506102ef61168e565b6040516102fc919061216a565b60405180910390f35b34801561031157600080fd5b5061031a6116b2565b6040516103279190612276565b60405180910390f35b610338611809565b005b6000806060806060806060806000600260008b815260200190815260200160002060405180610100016040529081600082015481526020016001820160009054906101000a900473ffffffffffffffffffffffffffffffffffffffff1673ffffffffffffffffffffffffffffffffffffffff1673ffffffffffffffffffffffffffffffffffffffff1681526020016002820180546103d7906122c7565b80601f0160208091040260200160405190810160405280929190818152602001828054610403906122c7565b80156104505780601f1061042557610100808354040283529160200191610450565b820191906000526020600020905b81548152906001019060200180831161043357829003601f168201915b50505050508152602001600382018054610469906122c7565b80601f0160208091040260200160405190810160405280929190818152602001828054610495906122c7565b80156104e25780601f106104b7576101008083540402835291602001916104e2565b820191906000526020600020905b8154815290600101906020018083116104c557829003601f168201915b505050505081526020016004820180546104fb906122c7565b80601f0160208091040260200160405190810160405280929190818152602001828054610527906122c7565b80156105745780601f1061054957610100808354040283529160200191610574565b820191906000526020600020905b81548152906001019060200180831161055757829003601f168201915b5050505050815260200160058201805461058d906122c7565b80601f01602080910402602001604051908101604052809291908181526020018280546105b9906122c7565b80156106065780601f106105db57610100808354040283529160200191610606565b820191906000526020600020905b8154815290600101906020018083116105e957829003601f168201915b5050505050815260200160068201805461061f906122c7565b80601f016020809104026020016040519081016040528092919081815260200182805461064b906122c7565b80156106985780601f1061066d57610100808354040283529160200191610698565b820191906000526020600020905b81548152906001019060200180831161067b57829003601f168201915b505050505081526020016007820180546106b1906122c7565b80601f01602080910402602001604051908101604052809291908181526020018280546106dd906122c7565b801561072a5780601f106106ff5761010080835404028352916020019161072a565b820191906000526020600020905b81548152906001019060200180831161070d57829003601f168201915b5050505050815250509050806000015181602001518260400151836060015184608001518560a001518660c001518760e001519850985098509850985098509850985050919395975091939597565b60008054906101000a900473ffffffffffffffffffffffffffffffffffffffff1673ffffffffffffffffffffffffffffffffffffffff163373ffffffffffffffffffffffffffffffffffffffff1614610807576040517f08c379a00000000000000000000000000000000000000000000000000000000081526004016107fe9061236a565b60405180910390fd5b60008054906101000a900473ffffffffffffffffffffffffffffffffffffffff1673ffffffffffffffffffffffffffffffffffffffff163373ffffffffffffffffffffffffffffffffffffffff1614610895576040517f08c379a000000000000000000000000000000000000000000000000000000000815260040161088c906123fc565b60405180910390fd5b8060018190555050565b60055481565b60008054906101000a900473ffffffffffffffffffffffffffffffffffffffff1673ffffffffffffffffffffffffffffffffffffffff163373ffffffffffffffffffffffffffffffffffffffff1614610933576040517f08c379a000000000000000000000000000000000000000000000000000000000815260040161092a9061236a565b60405180910390fd5b60004790506000811161097b576040517f08c379a00000000000000000000000000000000000000000000000000000000081526004016109729061248e565b60405180910390fd5b60008054906101000a900473ffffffffffffffffffffffffffffffffffffffff1673ffffffffffffffffffffffffffffffffffffffff166108fc829081150290604051600060405180830381858888f193505050501580156109e1573d6000803e3d6000fd5b5050565b6060600060045490506000808267ffffffffffffffff811115610a0b57610a0a611e57565b5b604051908082528060200260200182016040528015610a4457816020015b610a31611929565b815260200190600190039081610a295790505b50905060005b83811015610e95576000600182610a6191906124dd565b905060006002600083815260200190815260200160002090508060405180610100016040529081600082015481526020016001820160009054906101000a900473ffffffffffffffffffffffffffffffffffffffff1673ffffffffffffffffffffffffffffffffffffffff1673ffffffffffffffffffffffffffffffffffffffff168152602001600282018054610af7906122c7565b80601f0160208091040260200160405190810160405280929190818152602001828054610b23906122c7565b8015610b705780601f10610b4557610100808354040283529160200191610b70565b820191906000526020600020905b815481529060010190602001808311610b5357829003601f168201915b50505050508152602001600382018054610b89906122c7565b80601f0160208091040260200160405190810160405280929190818152602001828054610bb5906122c7565b8015610c025780601f10610bd757610100808354040283529160200191610c02565b820191906000526020600020905b815481529060010190602001808311610be557829003601f168201915b50505050508152602001600482018054610c1b906122c7565b80601f0160208091040260200160405190810160405280929190818152602001828054610c47906122c7565b8015610c945780601f10610c6957610100808354040283529160200191610c94565b820191906000526020600020905b815481529060010190602001808311610c7757829003601f168201915b50505050508152602001600582018054610cad906122c7565b80601f0160208091040260200160405190810160405280929190818152602001828054610cd9906122c7565b8015610d265780601f10610cfb57610100808354040283529160200191610d26565b820191906000526020600020905b815481529060010190602001808311610d0957829003601f168201915b50505050508152602001600682018054610d3f906122c7565b80601f0160208091040260200160405190810160405280929190818152602001828054610d6b906122c7565b8015610db85780601f10610d8d57610100808354040283529160200191610db8565b820191906000526020600020905b815481529060010190602001808311610d9b57829003601f168201915b50505050508152602001600782018054610dd1906122c7565b80601f0160208091040260200160405190810160405280929190818152602001828054610dfd906122c7565b8015610e4a5780601f10610e1f57610100808354040283529160200191610e4a565b820191906000526020600020905b815481529060010190602001808311610e2d57829003601f168201915b505050505081525050848681518110610e6657610e65612511565b5b6020026020010181905250600185610e7e91906124dd565b945050508080610e8d90612540565b915050610a4a565b5080935050505090565b60008060009054906101000a900473ffffffffffffffffffffffffffffffffffffffff1673ffffffffffffffffffffffffffffffffffffffff163373ffffffffffffffffffffffffffffffffffffffff1614610f30576040517f08c379a0000000000000000000000000000000000000000000000000000000008152600401610f279061236a565b60405180910390fd5b60004790508091505090565b6000600154905090565b6060600060045490506000806000600190505b838111610fec578573ffffffffffffffffffffffffffffffffffffffff166002600083815260200190815260200160002060010160009054906101000a900473ffffffffffffffffffffffffffffffffffffffff1673ffffffffffffffffffffffffffffffffffffffff1603610fd957600183610fd691906124dd565b92505b8080610fe490612540565b915050610f59565b5060008267ffffffffffffffff81111561100957611008611e57565b5b60405190808252806020026020018201604052801561104257816020015b61102f611929565b8152602001906001900390816110275790505b5090506000600190505b848111611500578673ffffffffffffffffffffffffffffffffffffffff166002600083815260200190815260200160002060010160009054906101000a900473ffffffffffffffffffffffffffffffffffffffff1673ffffffffffffffffffffffffffffffffffffffff16036114ed5760006001826110cb91906124dd565b905060006002600083815260200190815260200160002090508060405180610100016040529081600082015481526020016001820160009054906101000a900473ffffffffffffffffffffffffffffffffffffffff1673ffffffffffffffffffffffffffffffffffffffff1673ffffffffffffffffffffffffffffffffffffffff168152602001600282018054611161906122c7565b80601f016020809104026020016040519081016040528092919081815260200182805461118d906122c7565b80156111da5780601f106111af576101008083540402835291602001916111da565b820191906000526020600020905b8154815290600101906020018083116111bd57829003601f168201915b505050505081526020016003820180546111f3906122c7565b80601f016020809104026020016040519081016040528092919081815260200182805461121f906122c7565b801561126c5780601f106112415761010080835404028352916020019161126c565b820191906000526020600020905b81548152906001019060200180831161124f57829003601f168201915b50505050508152602001600482018054611285906122c7565b80601f01602080910402602001604051908101604052809291908181526020018280546112b1906122c7565b80156112fe5780601f106112d3576101008083540402835291602001916112fe565b820191906000526020600020905b8154815290600101906020018083116112e157829003601f168201915b50505050508152602001600582018054611317906122c7565b80601f0160208091040260200160405190810160405280929190818152602001828054611343906122c7565b80156113905780601f1061136557610100808354040283529160200191611390565b820191906000526020600020905b81548152906001019060200180831161137357829003601f168201915b505050505081526020016006820180546113a9906122c7565b80601f01602080910402602001604051908101604052809291908181526020018280546113d5906122c7565b80156114225780601f106113f757610100808354040283529160200191611422565b820191906000526020600020905b81548152906001019060200180831161140557829003601f168201915b5050505050815260200160078201805461143b906122c7565b80601f0160208091040260200160405190810160405280929190818152602001828054611467906122c7565b80156114b45780601f10611489576101008083540402835291602001916114b4565b820191906000526020600020905b81548152906001019060200180831161149757829003601f168201915b5050505050815250508486815181106114d0576114cf612511565b5b60200260200101819052506001856114e891906124dd565b945050505b80806114f890612540565b91505061104c565b5080945050505050919050565b6000806060806060806004600081548092919061152990612540565b91905055506000600454905060006002600083815260200190815260200160002090508e8160010160006101000a81548173ffffffffffffffffffffffffffffffffffffffff021916908373ffffffffffffffffffffffffffffffffffffffff1602179055508181600001819055508d8160020190816115a99190612734565b508b8160040190816115bb9190612734565b508c8160030190816115cd9190612734565b508a8160050190816115df9190612734565b50898160060190816115f19190612734565b50888160070190816116039190612734565b508a6040516116129190612842565b60405180910390208f73ffffffffffffffffffffffffffffffffffffffff16837f72e070645b8753b7561512bdcd5680da44ba132de789fec82d235d43ec008d9b60405160405180910390a4818f8c8f8f8f97509750975097509750975050509750975097509750975097915050565b60045481565b60015481565b60008054906101000a900473ffffffffffffffffffffffffffffffffffffffff1681565b6060600060055490506000808267ffffffffffffffff8111156116d8576116d7611e57565b5b60405190808252806020026020018201604052801561171157816020015b6116fe611984565b8152602001906001900390816116f65790505b50905060005b838110156117ff57600060018261172e91906124dd565b9050600060036000838152602001908152602001600020905080604051806060016040529081600082015481526020016001820160009054906101000a900473ffffffffffffffffffffffffffffffffffffffff1673ffffffffffffffffffffffffffffffffffffffff1673ffffffffffffffffffffffffffffffffffffffff1681526020016002820154815250508486815181106117d0576117cf612511565b5b60200260200101819052506001856117e891906124dd565b9450505080806117f790612540565b915050611717565b5080935050505090565b6000341161184c576040517f08c379a0000000000000000000000000000000000000000000000000000000008152600401611843906128cb565b60405180910390fd5b6005600081548092919061185f90612540565b9190505550600060055490506000600360008381526020019081526020016000209050818160000181905550338160010160006101000a81548173ffffffffffffffffffffffffffffffffffffffff021916908373ffffffffffffffffffffffffffffffffffffffff1602179055503481600201819055503373ffffffffffffffffffffffffffffffffffffffff167f264f630d9efa0d07053a31163641d9fcc0adafc9d9e76f1c37c2ce3a558d2c523460405161191d9190611bba565b60405180910390a25050565b60405180610100016040528060008152602001600073ffffffffffffffffffffffffffffffffffffffff1681526020016060815260200160608152602001606081526020016060815260200160608152602001606081525090565b604051806060016040528060008152602001600073ffffffffffffffffffffffffffffffffffffffff168152602001600081525090565b6000604051905090565b600080fd5b600080fd5b6000819050919050565b6119e2816119cf565b81146119ed57600080fd5b50565b6000813590506119ff816119d9565b92915050565b600060208284031215611a1b57611a1a6119c5565b5b6000611a29848285016119f0565b91505092915050565b611a3b816119cf565b82525050565b600073ffffffffffffffffffffffffffffffffffffffff82169050919050565b6000611a6c82611a41565b9050919050565b611a7c81611a61565b82525050565b600081519050919050565b600082825260208201905092915050565b60005b83811015611abc578082015181840152602081019050611aa1565b60008484015250505050565b6000601f19601f8301169050919050565b6000611ae482611a82565b611aee8185611a8d565b9350611afe818560208601611a9e565b611b0781611ac8565b840191505092915050565b600061010082019050611b28600083018b611a32565b611b35602083018a611a73565b8181036040830152611b478189611ad9565b90508181036060830152611b5b8188611ad9565b90508181036080830152611b6f8187611ad9565b905081810360a0830152611b838186611ad9565b905081810360c0830152611b978185611ad9565b905081810360e0830152611bab8184611ad9565b90509998505050505050505050565b6000602082019050611bcf6000830184611a32565b92915050565b600081519050919050565b600082825260208201905092915050565b6000819050602082019050919050565b611c0a816119cf565b82525050565b611c1981611a61565b82525050565b600082825260208201905092915050565b6000611c3b82611a82565b611c458185611c1f565b9350611c55818560208601611a9e565b611c5e81611ac8565b840191505092915050565b600061010083016000830151611c826000860182611c01565b506020830151611c956020860182611c10565b5060408301518482036040860152611cad8282611c30565b91505060608301518482036060860152611cc78282611c30565b91505060808301518482036080860152611ce18282611c30565b91505060a083015184820360a0860152611cfb8282611c30565b91505060c083015184820360c0860152611d158282611c30565b91505060e083015184820360e0860152611d2f8282611c30565b9150508091505092915050565b6000611d488383611c69565b905092915050565b6000602082019050919050565b6000611d6882611bd5565b611d728185611be0565b935083602082028501611d8485611bf1565b8060005b85811015611dc05784840389528151611da18582611d3c565b9450611dac83611d50565b925060208a01995050600181019050611d88565b50829750879550505050505092915050565b60006020820190508181036000830152611dec8184611d5d565b905092915050565b611dfd81611a61565b8114611e0857600080fd5b50565b600081359050611e1a81611df4565b92915050565b600060208284031215611e3657611e356119c5565b5b6000611e4484828501611e0b565b91505092915050565b600080fd5b600080fd5b7f4e487b7100000000000000000000000000000000000000000000000000000000600052604160045260246000fd5b611e8f82611ac8565b810181811067ffffffffffffffff82111715611eae57611ead611e57565b5b80604052505050565b6000611ec16119bb565b9050611ecd8282611e86565b919050565b600067ffffffffffffffff821115611eed57611eec611e57565b5b611ef682611ac8565b9050602081019050919050565b82818337600083830152505050565b6000611f25611f2084611ed2565b611eb7565b905082815260208101848484011115611f4157611f40611e52565b5b611f4c848285611f03565b509392505050565b600082601f830112611f6957611f68611e4d565b5b8135611f79848260208601611f12565b91505092915050565b600080600080600080600060e0888a031215611fa157611fa06119c5565b5b6000611faf8a828b01611e0b565b975050602088013567ffffffffffffffff811115611fd057611fcf6119ca565b5b611fdc8a828b01611f54565b965050604088013567ffffffffffffffff811115611ffd57611ffc6119ca565b5b6120098a828b01611f54565b955050606088013567ffffffffffffffff81111561202a576120296119ca565b5b6120368a828b01611f54565b945050608088013567ffffffffffffffff811115612057576120566119ca565b5b6120638a828b01611f54565b93505060a088013567ffffffffffffffff811115612084576120836119ca565b5b6120908a828b01611f54565b92505060c088013567ffffffffffffffff8111156120b1576120b06119ca565b5b6120bd8a828b01611f54565b91505092959891949750929550565b600060c0820190506120e16000830189611a32565b6120ee6020830188611a73565b81810360408301526121008187611ad9565b905081810360608301526121148186611ad9565b905081810360808301526121288185611ad9565b905081810360a083015261213c8184611ad9565b9050979650505050505050565b600061215482611a41565b9050919050565b61216481612149565b82525050565b600060208201905061217f600083018461215b565b92915050565b600081519050919050565b600082825260208201905092915050565b6000819050602082019050919050565b6060820160008201516121c76000850182611c01565b5060208201516121da6020850182611c10565b5060408201516121ed6040850182611c01565b50505050565b60006121ff83836121b1565b60608301905092915050565b6000602082019050919050565b600061222382612185565b61222d8185612190565b9350612238836121a1565b8060005b8381101561226957815161225088826121f3565b975061225b8361220b565b92505060018101905061223c565b5085935050505092915050565b600060208201905081810360008301526122908184612218565b905092915050565b7f4e487b7100000000000000000000000000000000000000000000000000000000600052602260045260246000fd5b600060028204905060018216806122df57607f821691505b6020821081036122f2576122f1612298565b5b50919050565b7f4f6e6c79206f776e65722063616e2063616c6c20746869732066756e6374696f60008201527f6e00000000000000000000000000000000000000000000000000000000000000602082015250565b6000612354602183611a8d565b915061235f826122f8565b604082019050919050565b6000602082019050818103600083015261238381612347565b9050919050565b7f4f6e6c7920636f6e7472616374206f776e65722063616e20757064617465207460008201527f6865206c697374696e6720707269636500000000000000000000000000000000602082015250565b60006123e6603083611a8d565b91506123f18261238a565b604082019050919050565b60006020820190508181036000830152612415816123d9565b9050919050565b7f4e6f20646f6e6174696f6e7320617661696c61626c6520666f7220776974686460008201527f7261772000000000000000000000000000000000000000000000000000000000602082015250565b6000612478602483611a8d565b91506124838261241c565b604082019050919050565b600060208201905081810360008301526124a78161246b565b9050919050565b7f4e487b7100000000000000000000000000000000000000000000000000000000600052601160045260246000fd5b60006124e8826119cf565b91506124f3836119cf565b925082820190508082111561250b5761250a6124ae565b5b92915050565b7f4e487b7100000000000000000000000000000000000000000000000000000000600052603260045260246000fd5b600061254b826119cf565b91507fffffffffffffffffffffffffffffffffffffffffffffffffffffffffffffffff820361257d5761257c6124ae565b5b600182019050919050565b60008190508160005260206000209050919050565b60006020601f8301049050919050565b600082821b905092915050565b6000600883026125ea7fffffffffffffffffffffffffffffffffffffffffffffffffffffffffffffffff826125ad565b6125f486836125ad565b95508019841693508086168417925050509392505050565b6000819050919050565b600061263161262c612627846119cf565b61260c565b6119cf565b9050919050565b6000819050919050565b61264b83612616565b61265f61265782612638565b8484546125ba565b825550505050565b600090565b612674612667565b61267f818484612642565b505050565b5b818110156126a35761269860008261266c565b600181019050612685565b5050565b601f8211156126e8576126b981612588565b6126c28461259d565b810160208510156126d1578190505b6126e56126dd8561259d565b830182612684565b50505b505050565b600082821c905092915050565b600061270b600019846008026126ed565b1980831691505092915050565b600061272483836126fa565b9150826002028217905092915050565b61273d82611a82565b67ffffffffffffffff81111561275657612755611e57565b5b61276082546122c7565b61276b8282856126a7565b600060209050601f83116001811461279e576000841561278c578287015190505b6127968582612718565b8655506127fe565b601f1984166127ac86612588565b60005b828110156127d4578489015182556001820191506020850194506020810190506127af565b868310156127f157848901516127ed601f8916826126fa565b8355505b6001600288020188555050505b505050505050565b600081905092915050565b600061281c82611a82565b6128268185612806565b9350612836818560208601611a9e565b80840191505092915050565b600061284e8284612811565b915081905092915050565b7f446f6e6174696f6e20616d6f756e74206d75737420626520677265617465722060008201527f7468616e20300000000000000000000000000000000000000000000000000000602082015250565b60006128b5602683611a8d565b91506128c082612859565b604082019050919050565b600060208201905081810360008301526128e4816128a8565b905091905056fea2646970667358221220c86d76fcd1e2b835f3c19ed54cc432f0ebef1d0a0429a58da3c09be259ad3c0f64736f6c63430008130033",
  "linkReferences": {},
  "deployedLinkReferences": {}
}