{
  "_format": "hh-sol-artifact-1",
  "contractName": "MainContract",
  "sourceName": "contracts/MainContract.sol",
  "abi": [
    {
      "anonymous": false,
      "inputs": [
        {
          "indexed": true,
          "internalType": "address",
          "name": "donor",
          "type": "address"
        },
        {
          "indexed": false,
          "internalType": "uint256",
          "name": "amount",
          "type": "uint256"
        }
      ],
      "name": "DonationReceived",
      "type": "event"
    },
    {
      "anonymous": false,
      "inputs": [
        {
          "indexed": true,
          "internalType": "uint256",
          "name": "id",
          "type": "uint256"
        },
        {
          "indexed": true,
          "internalType": "address",
          "name": "owner",
          "type": "address"
        },
        {
          "indexed": true,
          "internalType": "string",
          "name": "token",
          "type": "string"
        }
      ],
      "name": "ERC20TokenListed",
      "type": "event"
    },
    {
      "inputs": [],
      "name": "_donationIndex",
      "outputs": [
        {
          "internalType": "uint256",
          "name": "",
          "type": "uint256"
        }
      ],
      "stateMutability": "view",
      "type": "function"
    },
    {
      "inputs": [],
      "name": "_tokenIndex",
      "outputs": [
        {
          "internalType": "uint256",
          "name": "",
          "type": "uint256"
        }
      ],
      "stateMutability": "view",
      "type": "function"
    },
    {
      "inputs": [],
      "name": "contractOwner",
      "outputs": [
        {
          "internalType": "address payable",
          "name": "",
          "type": "address"
        }
      ],
      "stateMutability": "view",
      "type": "function"
    },
    {
      "inputs": [
        {
          "internalType": "address",
          "name": "_owner",
          "type": "address"
        },
        {
          "internalType": "string",
          "name": "_tokenSupply",
          "type": "string"
        },
        {
          "internalType": "string",
          "name": "_tokenName",
          "type": "string"
        },
        {
          "internalType": "string",
          "name": "_tokenSymbol",
          "type": "string"
        },
        {
          "internalType": "string",
          "name": "_tokenAddress",
          "type": "string"
        },
        {
          "internalType": "string",
          "name": "_tokenTransactionHash",
          "type": "string"
        },
        {
          "internalType": "string",
          "name": "_tokenCreatedData",
          "type": "string"
        }
      ],
      "name": "createERC20Token",
      "outputs": [
        {
          "internalType": "uint256",
          "name": "",
          "type": "uint256"
        },
        {
          "internalType": "address",
          "name": "",
          "type": "address"
        },
        {
          "internalType": "string",
          "name": "",
          "type": "string"
        },
        {
          "internalType": "string",
          "name": "",
          "type": "string"
        },
        {
          "internalType": "string",
          "name": "",
          "type": "string"
        },
        {
          "internalType": "string",
          "name": "",
          "type": "string"
        }
      ],
      "stateMutability": "payable",
      "type": "function"
    },
    {
      "inputs": [],
      "name": "donate",
      "outputs": [],
      "stateMutability": "payable",
      "type": "function"
    },
    {
      "inputs": [],
      "name": "getAllERC20TokenListed",
      "outputs": [
        {
          "components": [
            {
              "internalType": "uint256",
              "name": "tokenID",
              "type": "uint256"
            },
            {
              "internalType": "address",
              "name": "owner",
              "type": "address"
            },
            {
              "internalType": "string",
              "name": "tokenSupply",
              "type": "string"
            },
            {
              "internalType": "string",
              "name": "tokenName",
              "type": "string"
            },
            {
              "internalType": "string",
              "name": "tokenSymbol",
              "type": "string"
            },
            {
              "internalType": "string",
              "name": "tokenAddress",
              "type": "string"
            },
            {
              "internalType": "string",
              "name": "tokenTransactionHash",
              "type": "string"
            },
            {
              "internalType": "string",
              "name": "tokenCreatedDate",
              "type": "string"
            }
          ],
          "internalType": "struct MainContract.ERC20Token[]",
          "name": "",
          "type": "tuple[]"
        }
      ],
      "stateMutability": "view",
      "type": "function"
    },
    {
      "inputs": [],
      "name": "getContractBalance",
      "outputs": [
        {
          "internalType": "uint256",
          "name": "",
          "type": "uint256"
        }
      ],
      "stateMutability": "view",
      "type": "function"
    },
    {
      "inputs": [],
      "name": "getDonations",
      "outputs": [
        {
          "components": [
            {
              "internalType": "uint256",
              "name": "donationID",
              "type": "uint256"
            },
            {
              "internalType": "address",
              "name": "donor",
              "type": "address"
            },
            {
              "internalType": "uint256",
              "name": "fund",
              "type": "uint256"
            }
          ],
          "internalType": "struct MainContract.Donation[]",
          "name": "",
          "type": "tuple[]"
        }
      ],
      "stateMutability": "view",
      "type": "function"
    },
    {
      "inputs": [
        {
          "internalType": "uint256",
          "name": "_tokenID",
          "type": "uint256"
        }
      ],
      "name": "getERC20Token",
      "outputs": [
        {
          "internalType": "uint256",
          "name": "",
          "type": "uint256"
        },
        {
          "internalType": "address",
          "name": "",
          "type": "address"
        },
        {
          "internalType": "string",
          "name": "",
          "type": "string"
        },
        {
          "internalType": "string",
          "name": "",
          "type": "string"
        },
        {
          "internalType": "string",
          "name": "",
          "type": "string"
        },
        {
          "internalType": "string",
          "name": "",
          "type": "string"
        },
        {
          "internalType": "string",
          "name": "",
          "type": "string"
        },
        {
          "internalType": "string",
          "name": "",
          "type": "string"
        }
      ],
      "stateMutability": "view",
      "type": "function"
    },
    {
      "inputs": [],
      "name": "getERC20TokenListingPrice",
      "outputs": [
        {
          "internalType": "uint256",
          "name": "",
          "type": "uint256"
        }
      ],
      "stateMutability": "view",
      "type": "function"
    },
    {
      "inputs": [
        {
          "internalType": "address",
          "name": "_user",
          "type": "address"
        }
      ],
      "name": "getUserERC20Tokens",
      "outputs": [
        {
          "components": [
            {
              "internalType": "uint256",
              "name": "tokenID",
              "type": "uint256"
            },
            {
              "internalType": "address",
              "name": "owner",
              "type": "address"
            },
            {
              "internalType": "string",
              "name": "tokenSupply",
              "type": "string"
            },
            {
              "internalType": "string",
              "name": "tokenName",
              "type": "string"
            },
            {
              "internalType": "string",
              "name": "tokenSymbol",
              "type": "string"
            },
            {
              "internalType": "string",
              "name": "tokenAddress",
              "type": "string"
            },
            {
              "internalType": "string",
              "name": "tokenTransactionHash",
              "type": "string"
            },
            {
              "internalType": "string",
              "name": "tokenCreatedDate",
              "type": "string"
            }
          ],
          "internalType": "struct MainContract.ERC20Token[]",
          "name": "",
          "type": "tuple[]"
        }
      ],
      "stateMutability": "view",
      "type": "function"
    },
    {
      "inputs": [],
      "name": "listingPrice",
      "outputs": [
        {
          "internalType": "uint256",
          "name": "",
          "type": "uint256"
        }
      ],
      "stateMutability": "view",
      "type": "function"
    },
    {
      "inputs": [
        {
          "internalType": "uint256",
          "name": "_listingPrice",
          "type": "uint256"
        }
      ],
      "name": "updatingListPrice",
      "outputs": [],
      "stateMutability": "payable",
      "type": "function"
    },
    {
      "inputs": [],
      "name": "withdraw",
      "outputs": [],
      "stateMutability": "nonpayable",
      "type": "function"
    }
  ],
  "bytecode": "0x608060405273fda86653c104b8163bf9337e58c3313a7f58553f6000806101000a81548173ffffffffffffffffffffffffffffffffffffffff021916908373ffffffffffffffffffffffffffffffffffffffff160217905550662386f26fc1000060015534801561006f57600080fd5b506129148061007f6000396000f3fe6080604052600436106100dd5760003560e01c8063a21854771161007f578063c78f19f911610059578063c78f19f9146102a2578063ce606ee0146102cd578063e25f8416146102f8578063ed88c68e14610323576100dd565b8063a218547714610205578063a581889a14610242578063b5c6e21f14610277576100dd565b80633ccfd60b116100bb5780633ccfd60b1461016d5780635b7af131146101845780636f9fb98a146101af5780639463c838146101da576100dd565b80630fbf0e31146100e257806316e5f7b9146101265780631ec4a8b514610142575b600080fd5b3480156100ee57600080fd5b50610109600480360381019061010491906119f8565b61032d565b60405161011d989796959493929190611b05565b60405180910390f35b610140600480360381019061013b91906119f8565b61076c565b005b34801561014e57600080fd5b50610157610892565b6040516101649190611bad565b60405180910390f35b34801561017957600080fd5b50610182610898565b005b34801561019057600080fd5b506101996109d8565b6040516101a69190611dc5565b60405180910390f35b3480156101bb57600080fd5b506101c4610e92565b6040516101d19190611bad565b60405180910390f35b3480156101e657600080fd5b506101ef610f2f565b6040516101fc9190611bad565b60405180910390f35b34801561021157600080fd5b5061022c60048036038101906102279190611e13565b610f39565b6040516102399190611dc5565b60405180910390f35b61025c60048036038101906102579190611f75565b611500565b60405161026e969594939291906120bf565b60405180910390f35b34801561028357600080fd5b5061028c611675565b6040516102999190611bad565b60405180910390f35b3480156102ae57600080fd5b506102b761167b565b6040516102c49190611bad565b60405180910390f35b3480156102d957600080fd5b506102e2611681565b6040516102ef919061215d565b60405180910390f35b34801561030457600080fd5b5061030d6116a5565b60405161031a9190612269565b60405180910390f35b61032b6117fc565b005b6000806060806060806060806000600260008b815260200190815260200160002060405180610100016040529081600082015481526020016001820160009054906101000a900473ffffffffffffffffffffffffffffffffffffffff1673ffffffffffffffffffffffffffffffffffffffff1673ffffffffffffffffffffffffffffffffffffffff1681526020016002820180546103ca906122ba565b80601f01602080910402602001604051908101604052809291908181526020018280546103f6906122ba565b80156104435780601f1061041857610100808354040283529160200191610443565b820191906000526020600020905b81548152906001019060200180831161042657829003601f168201915b5050505050815260200160038201805461045c906122ba565b80601f0160208091040260200160405190810160405280929190818152602001828054610488906122ba565b80156104d55780601f106104aa576101008083540402835291602001916104d5565b820191906000526020600020905b8154815290600101906020018083116104b857829003601f168201915b505050505081526020016004820180546104ee906122ba565b80601f016020809104026020016040519081016040528092919081815260200182805461051a906122ba565b80156105675780601f1061053c57610100808354040283529160200191610567565b820191906000526020600020905b81548152906001019060200180831161054a57829003601f168201915b50505050508152602001600582018054610580906122ba565b80601f01602080910402602001604051908101604052809291908181526020018280546105ac906122ba565b80156105f95780601f106105ce576101008083540402835291602001916105f9565b820191906000526020600020905b8154815290600101906020018083116105dc57829003601f168201915b50505050508152602001600682018054610612906122ba565b80601f016020809104026020016040519081016040528092919081815260200182805461063e906122ba565b801561068b5780601f106106605761010080835404028352916020019161068b565b820191906000526020600020905b81548152906001019060200180831161066e57829003601f168201915b505050505081526020016007820180546106a4906122ba565b80601f01602080910402602001604051908101604052809291908181526020018280546106d0906122ba565b801561071d5780601f106106f25761010080835404028352916020019161071d565b820191906000526020600020905b81548152906001019060200180831161070057829003601f168201915b5050505050815250509050806000015181602001518260400151836060015184608001518560a001518660c001518760e001519850985098509850985098509850985050919395975091939597565b60008054906101000a900473ffffffffffffffffffffffffffffffffffffffff1673ffffffffffffffffffffffffffffffffffffffff163373ffffffffffffffffffffffffffffffffffffffff16146107fa576040517f08c379a00000000000000000000000000000000000000000000000000000000081526004016107f19061235d565b60405180910390fd5b60008054906101000a900473ffffffffffffffffffffffffffffffffffffffff1673ffffffffffffffffffffffffffffffffffffffff163373ffffffffffffffffffffffffffffffffffffffff1614610888576040517f08c379a000000000000000000000000000000000000000000000000000000000815260040161087f906123ef565b60405180910390fd5b8060018190555050565b60055481565b60008054906101000a900473ffffffffffffffffffffffffffffffffffffffff1673ffffffffffffffffffffffffffffffffffffffff163373ffffffffffffffffffffffffffffffffffffffff1614610926576040517f08c379a000000000000000000000000000000000000000000000000000000000815260040161091d9061235d565b60405180910390fd5b60004790506000811161096e576040517f08c379a000000000000000000000000000000000000000000000000000000000815260040161096590612481565b60405180910390fd5b60008054906101000a900473ffffffffffffffffffffffffffffffffffffffff1673ffffffffffffffffffffffffffffffffffffffff166108fc829081150290604051600060405180830381858888f193505050501580156109d4573d6000803e3d6000fd5b5050565b6060600060045490506000808267ffffffffffffffff8111156109fe576109fd611e4a565b5b604051908082528060200260200182016040528015610a3757816020015b610a2461191c565b815260200190600190039081610a1c5790505b50905060005b83811015610e88576000600182610a5491906124d0565b905060006002600083815260200190815260200160002090508060405180610100016040529081600082015481526020016001820160009054906101000a900473ffffffffffffffffffffffffffffffffffffffff1673ffffffffffffffffffffffffffffffffffffffff1673ffffffffffffffffffffffffffffffffffffffff168152602001600282018054610aea906122ba565b80601f0160208091040260200160405190810160405280929190818152602001828054610b16906122ba565b8015610b635780601f10610b3857610100808354040283529160200191610b63565b820191906000526020600020905b815481529060010190602001808311610b4657829003601f168201915b50505050508152602001600382018054610b7c906122ba565b80601f0160208091040260200160405190810160405280929190818152602001828054610ba8906122ba565b8015610bf55780601f10610bca57610100808354040283529160200191610bf5565b820191906000526020600020905b815481529060010190602001808311610bd857829003601f168201915b50505050508152602001600482018054610c0e906122ba565b80601f0160208091040260200160405190810160405280929190818152602001828054610c3a906122ba565b8015610c875780601f10610c5c57610100808354040283529160200191610c87565b820191906000526020600020905b815481529060010190602001808311610c6a57829003601f168201915b50505050508152602001600582018054610ca0906122ba565b80601f0160208091040260200160405190810160405280929190818152602001828054610ccc906122ba565b8015610d195780601f10610cee57610100808354040283529160200191610d19565b820191906000526020600020905b815481529060010190602001808311610cfc57829003601f168201915b50505050508152602001600682018054610d32906122ba565b80601f0160208091040260200160405190810160405280929190818152602001828054610d5e906122ba565b8015610dab5780601f10610d8057610100808354040283529160200191610dab565b820191906000526020600020905b815481529060010190602001808311610d8e57829003601f168201915b50505050508152602001600782018054610dc4906122ba565b80601f0160208091040260200160405190810160405280929190818152602001828054610df0906122ba565b8015610e3d5780601f10610e1257610100808354040283529160200191610e3d565b820191906000526020600020905b815481529060010190602001808311610e2057829003601f168201915b505050505081525050848681518110610e5957610e58612504565b5b6020026020010181905250600185610e7191906124d0565b945050508080610e8090612533565b915050610a3d565b5080935050505090565b60008060009054906101000a900473ffffffffffffffffffffffffffffffffffffffff1673ffffffffffffffffffffffffffffffffffffffff163373ffffffffffffffffffffffffffffffffffffffff1614610f23576040517f08c379a0000000000000000000000000000000000000000000000000000000008152600401610f1a9061235d565b60405180910390fd5b60004790508091505090565b6000600154905090565b6060600060045490506000806000600190505b838111610fdf578573ffffffffffffffffffffffffffffffffffffffff166002600083815260200190815260200160002060010160009054906101000a900473ffffffffffffffffffffffffffffffffffffffff1673ffffffffffffffffffffffffffffffffffffffff1603610fcc57600183610fc991906124d0565b92505b8080610fd790612533565b915050610f4c565b5060008267ffffffffffffffff811115610ffc57610ffb611e4a565b5b60405190808252806020026020018201604052801561103557816020015b61102261191c565b81526020019060019003908161101a5790505b5090506000600190505b8481116114f3578673ffffffffffffffffffffffffffffffffffffffff166002600083815260200190815260200160002060010160009054906101000a900473ffffffffffffffffffffffffffffffffffffffff1673ffffffffffffffffffffffffffffffffffffffff16036114e05760006001826110be91906124d0565b905060006002600083815260200190815260200160002090508060405180610100016040529081600082015481526020016001820160009054906101000a900473ffffffffffffffffffffffffffffffffffffffff1673ffffffffffffffffffffffffffffffffffffffff1673ffffffffffffffffffffffffffffffffffffffff168152602001600282018054611154906122ba565b80601f0160208091040260200160405190810160405280929190818152602001828054611180906122ba565b80156111cd5780601f106111a2576101008083540402835291602001916111cd565b820191906000526020600020905b8154815290600101906020018083116111b057829003601f168201915b505050505081526020016003820180546111e6906122ba565b80601f0160208091040260200160405190810160405280929190818152602001828054611212906122ba565b801561125f5780601f106112345761010080835404028352916020019161125f565b820191906000526020600020905b81548152906001019060200180831161124257829003601f168201915b50505050508152602001600482018054611278906122ba565b80601f01602080910402602001604051908101604052809291908181526020018280546112a4906122ba565b80156112f15780601f106112c6576101008083540402835291602001916112f1565b820191906000526020600020905b8154815290600101906020018083116112d457829003601f168201915b5050505050815260200160058201805461130a906122ba565b80601f0160208091040260200160405190810160405280929190818152602001828054611336906122ba565b80156113835780601f1061135857610100808354040283529160200191611383565b820191906000526020600020905b81548152906001019060200180831161136657829003601f168201915b5050505050815260200160068201805461139c906122ba565b80601f01602080910402602001604051908101604052809291908181526020018280546113c8906122ba565b80156114155780601f106113ea57610100808354040283529160200191611415565b820191906000526020600020905b8154815290600101906020018083116113f857829003601f168201915b5050505050815260200160078201805461142e906122ba565b80601f016020809104026020016040519081016040528092919081815260200182805461145a906122ba565b80156114a75780601f1061147c576101008083540402835291602001916114a7565b820191906000526020600020905b81548152906001019060200180831161148a57829003601f168201915b5050505050815250508486815181106114c3576114c2612504565b5b60200260200101819052506001856114db91906124d0565b945050505b80806114eb90612533565b91505061103f565b5080945050505050919050565b6000806060806060806004600081548092919061151c90612533565b91905055506000600454905060006002600083815260200190815260200160002090508e8160010160006101000a81548173ffffffffffffffffffffffffffffffffffffffff021916908373ffffffffffffffffffffffffffffffffffffffff1602179055508181600001819055508d81600201908161159c9190612727565b508b8160040190816115ae9190612727565b508c8160030190816115c09190612727565b508a8160050190816115d29190612727565b50898160060190816115e49190612727565b50888160070190816115f69190612727565b508a6040516116059190612835565b60405180910390208f73ffffffffffffffffffffffffffffffffffffffff16837f72e070645b8753b7561512bdcd5680da44ba132de789fec82d235d43ec008d9b60405160405180910390a4818f8c8f8f8f97509750975097509750975050509750975097509750975097915050565b60045481565b60015481565b60008054906101000a900473ffffffffffffffffffffffffffffffffffffffff1681565b6060600060055490506000808267ffffffffffffffff8111156116cb576116ca611e4a565b5b60405190808252806020026020018201604052801561170457816020015b6116f1611977565b8152602001906001900390816116e95790505b50905060005b838110156117f257600060018261172191906124d0565b9050600060036000838152602001908152602001600020905080604051806060016040529081600082015481526020016001820160009054906101000a900473ffffffffffffffffffffffffffffffffffffffff1673ffffffffffffffffffffffffffffffffffffffff1673ffffffffffffffffffffffffffffffffffffffff1681526020016002820154815250508486815181106117c3576117c2612504565b5b60200260200101819052506001856117db91906124d0565b9450505080806117ea90612533565b91505061170a565b5080935050505090565b6000341161183f576040517f08c379a0000000000000000000000000000000000000000000000000000000008152600401611836906128be565b60405180910390fd5b6005600081548092919061185290612533565b9190505550600060055490506000600360008381526020019081526020016000209050818160000181905550338160010160006101000a81548173ffffffffffffffffffffffffffffffffffffffff021916908373ffffffffffffffffffffffffffffffffffffffff1602179055503481600201819055503373ffffffffffffffffffffffffffffffffffffffff167f264f630d9efa0d07053a31163641d9fcc0adafc9d9e76f1c37c2ce3a558d2c52346040516119109190611bad565b60405180910390a25050565b60405180610100016040528060008152602001600073ffffffffffffffffffffffffffffffffffffffff1681526020016060815260200160608152602001606081526020016060815260200160608152602001606081525090565b604051806060016040528060008152602001600073ffffffffffffffffffffffffffffffffffffffff168152602001600081525090565b6000604051905090565b600080fd5b600080fd5b6000819050919050565b6119d5816119c2565b81146119e057600080fd5b50565b6000813590506119f2816119cc565b92915050565b600060208284031215611a0e57611a0d6119b8565b5b6000611a1c848285016119e3565b91505092915050565b611a2e816119c2565b82525050565b600073ffffffffffffffffffffffffffffffffffffffff82169050919050565b6000611a5f82611a34565b9050919050565b611a6f81611a54565b82525050565b600081519050919050565b600082825260208201905092915050565b60005b83811015611aaf578082015181840152602081019050611a94565b60008484015250505050565b6000601f19601f8301169050919050565b6000611ad782611a75565b611ae18185611a80565b9350611af1818560208601611a91565b611afa81611abb565b840191505092915050565b600061010082019050611b1b600083018b611a25565b611b28602083018a611a66565b8181036040830152611b3a8189611acc565b90508181036060830152611b4e8188611acc565b90508181036080830152611b628187611acc565b905081810360a0830152611b768186611acc565b905081810360c0830152611b8a8185611acc565b905081810360e0830152611b9e8184611acc565b90509998505050505050505050565b6000602082019050611bc26000830184611a25565b92915050565b600081519050919050565b600082825260208201905092915050565b6000819050602082019050919050565b611bfd816119c2565b82525050565b611c0c81611a54565b82525050565b600082825260208201905092915050565b6000611c2e82611a75565b611c388185611c12565b9350611c48818560208601611a91565b611c5181611abb565b840191505092915050565b600061010083016000830151611c756000860182611bf4565b506020830151611c886020860182611c03565b5060408301518482036040860152611ca08282611c23565b91505060608301518482036060860152611cba8282611c23565b91505060808301518482036080860152611cd48282611c23565b91505060a083015184820360a0860152611cee8282611c23565b91505060c083015184820360c0860152611d088282611c23565b91505060e083015184820360e0860152611d228282611c23565b9150508091505092915050565b6000611d3b8383611c5c565b905092915050565b6000602082019050919050565b6000611d5b82611bc8565b611d658185611bd3565b935083602082028501611d7785611be4565b8060005b85811015611db35784840389528151611d948582611d2f565b9450611d9f83611d43565b925060208a01995050600181019050611d7b565b50829750879550505050505092915050565b60006020820190508181036000830152611ddf8184611d50565b905092915050565b611df081611a54565b8114611dfb57600080fd5b50565b600081359050611e0d81611de7565b92915050565b600060208284031215611e2957611e286119b8565b5b6000611e3784828501611dfe565b91505092915050565b600080fd5b600080fd5b7f4e487b7100000000000000000000000000000000000000000000000000000000600052604160045260246000fd5b611e8282611abb565b810181811067ffffffffffffffff82111715611ea157611ea0611e4a565b5b80604052505050565b6000611eb46119ae565b9050611ec08282611e79565b919050565b600067ffffffffffffffff821115611ee057611edf611e4a565b5b611ee982611abb565b9050602081019050919050565b82818337600083830152505050565b6000611f18611f1384611ec5565b611eaa565b905082815260208101848484011115611f3457611f33611e45565b5b611f3f848285611ef6565b509392505050565b600082601f830112611f5c57611f5b611e40565b5b8135611f6c848260208601611f05565b91505092915050565b600080600080600080600060e0888a031215611f9457611f936119b8565b5b6000611fa28a828b01611dfe565b975050602088013567ffffffffffffffff811115611fc357611fc26119bd565b5b611fcf8a828b01611f47565b965050604088013567ffffffffffffffff811115611ff057611fef6119bd565b5b611ffc8a828b01611f47565b955050606088013567ffffffffffffffff81111561201d5761201c6119bd565b5b6120298a828b01611f47565b945050608088013567ffffffffffffffff81111561204a576120496119bd565b5b6120568a828b01611f47565b93505060a088013567ffffffffffffffff811115612077576120766119bd565b5b6120838a828b01611f47565b92505060c088013567ffffffffffffffff8111156120a4576120a36119bd565b5b6120b08a828b01611f47565b91505092959891949750929550565b600060c0820190506120d46000830189611a25565b6120e16020830188611a66565b81810360408301526120f38187611acc565b905081810360608301526121078186611acc565b9050818103608083015261211b8185611acc565b905081810360a083015261212f8184611acc565b9050979650505050505050565b600061214782611a34565b9050919050565b6121578161213c565b82525050565b6000602082019050612172600083018461214e565b92915050565b600081519050919050565b600082825260208201905092915050565b6000819050602082019050919050565b6060820160008201516121ba6000850182611bf4565b5060208201516121cd6020850182611c03565b5060408201516121e06040850182611bf4565b50505050565b60006121f283836121a4565b60608301905092915050565b6000602082019050919050565b600061221682612178565b6122208185612183565b935061222b83612194565b8060005b8381101561225c57815161224388826121e6565b975061224e836121fe565b92505060018101905061222f565b5085935050505092915050565b60006020820190508181036000830152612283818461220b565b905092915050565b7f4e487b7100000000000000000000000000000000000000000000000000000000600052602260045260246000fd5b600060028204905060018216806122d257607f821691505b6020821081036122e5576122e461228b565b5b50919050565b7f4f6e6c79206f776e65722063616e2063616c6c20746869732066756e6374696f60008201527f6e00000000000000000000000000000000000000000000000000000000000000602082015250565b6000612347602183611a80565b9150612352826122eb565b604082019050919050565b600060208201905081810360008301526123768161233a565b9050919050565b7f4f6e6c7920636f6e7472616374206f776e65722063616e20757064617465207460008201527f6865206c697374696e6720707269636500000000000000000000000000000000602082015250565b60006123d9603083611a80565b91506123e48261237d565b604082019050919050565b60006020820190508181036000830152612408816123cc565b9050919050565b7f4e6f20646f6e6174696f6e7320617661696c61626c6520666f7220776974686460008201527f7261772000000000000000000000000000000000000000000000000000000000602082015250565b600061246b602483611a80565b91506124768261240f565b604082019050919050565b6000602082019050818103600083015261249a8161245e565b9050919050565b7f4e487b7100000000000000000000000000000000000000000000000000000000600052601160045260246000fd5b60006124db826119c2565b91506124e6836119c2565b92508282019050808211156124fe576124fd6124a1565b5b92915050565b7f4e487b7100000000000000000000000000000000000000000000000000000000600052603260045260246000fd5b600061253e826119c2565b91507fffffffffffffffffffffffffffffffffffffffffffffffffffffffffffffffff82036125705761256f6124a1565b5b600182019050919050565b60008190508160005260206000209050919050565b60006020601f8301049050919050565b600082821b905092915050565b6000600883026125dd7fffffffffffffffffffffffffffffffffffffffffffffffffffffffffffffffff826125a0565b6125e786836125a0565b95508019841693508086168417925050509392505050565b6000819050919050565b600061262461261f61261a846119c2565b6125ff565b6119c2565b9050919050565b6000819050919050565b61263e83612609565b61265261264a8261262b565b8484546125ad565b825550505050565b600090565b61266761265a565b612672818484612635565b505050565b5b818110156126965761268b60008261265f565b600181019050612678565b5050565b601f8211156126db576126ac8161257b565b6126b584612590565b810160208510156126c4578190505b6126d86126d085612590565b830182612677565b50505b505050565b600082821c905092915050565b60006126fe600019846008026126e0565b1980831691505092915050565b600061271783836126ed565b9150826002028217905092915050565b61273082611a75565b67ffffffffffffffff81111561274957612748611e4a565b5b61275382546122ba565b61275e82828561269a565b600060209050601f831160018114612791576000841561277f578287015190505b612789858261270b565b8655506127f1565b601f19841661279f8661257b565b60005b828110156127c7578489015182556001820191506020850194506020810190506127a2565b868310156127e457848901516127e0601f8916826126ed565b8355505b6001600288020188555050505b505050505050565b600081905092915050565b600061280f82611a75565b61281981856127f9565b9350612829818560208601611a91565b80840191505092915050565b60006128418284612804565b915081905092915050565b7f446f6e6174696f6e20616d6f756e74206d75737420626520677265617465722060008201527f7468616e20300000000000000000000000000000000000000000000000000000602082015250565b60006128a8602683611a80565b91506128b38261284c565b604082019050919050565b600060208201905081810360008301526128d78161289b565b905091905056fea2646970667358221220e2615208c20d078962685e3f0a87bf7c16fa043639c9fbe4097c766e25f8113b64736f6c63430008130033",
  "linkReferences": {},
  "deployedLinkReferences": {}
}